:03000000020AAE43
:0C0AAE00787FE4F6D8FD758138020AF567
:100F3200010F00010E00011000020A0000020C0065
:010F420000AE
:100BA30043DE2043DE0243DE0153DFEF53DFBF5357
:100BB300DF7F43DF0353DFFB75D10875D966A2AF2F
:100BC3009200C2AF75C7AA75C755439101A200929F
:100BD300AF75C50475CD33E4F5D375DB0575D20761
:100BE30075DA08A2AF9200C2AF75C7AA75C755538D
:100BF30091FEA20092AFD2DED2DF53DEDF53DEFDE1
:040C030053DEFE229C
:100F0D0053B1FE43B20153B1EF43B21053B1F743A6
:100F1D00B20853B3FD43B40253B3FB43B40443B11E
:050F2D000253B2FD2299
:100C6B00EF6003E480470509E5097002050864019C
:100C7B0045087009C291E510600343DE20E5096465
:100C8B003C45087002D291E509640F45087005C216
:100C9B008353DEDFE509646445087009E5106005E0
:100CAB00E4F508F509E509649645087004F508F5BF
:010CBB00092F
:010CBC002215
:10097D00E4F511F512F513F514F5B1F5B2F5B3F57E
:10098D00B4F5ACF5AD5389F0120F0D120BA3D28057
:10099D00C284D291D291D29253DEFD53DEFEC28338
:1009AD0053DEDF43DE20C2917F647E007D007C003C
:1009BD00120E3EC28353DEDFD291C3E51294E8E5F9
:1009CD00116480948350180512E5127002051120F0
:1009DD00810D7F017E007D007C00120E3E80DBC309
:1009ED00E51294E8E51164809483402243DE207F74
:1009FD00647E007D007C00120E3EC28353DEDFC29A
:100A0D0091C29243DE0243DE01750F028019750E0D
:100A1D00017F01120C6B750F017FE87E037D007C59
:100A2D0000120E3E751001050BE50B7002050AE56F
:100A3D000FB40105E4FF120C6BAE0AAF0B7C007D09
:100A4D0064120800ED4C7008050DE50D7002050CE3
:100A5D00E50FB40119E50D640A450C7004D284F557
:100A6D0010E50DB45808E50CB40203120CBDE50FEA
:100A7D00B4020DE50DB48008E50CB47003120CBD85
:100A8D00308107E50E7003750E01208107E50E60BC
:100A9D0003120CBD7F0A7E007D007C00120E3E808D
:010AAD0086C2
:100CBD0043DE207F647E007D007C00120E3EC283E9
:100CCD0053DEDF7F647E007D007C00120E3E43DE2E
:100CDD00207F647E007D007C00120E3EC28353DEB9
:100CED00DF20810D7F0A7E007D007C00120E3E808C
:0E0CFD00F0C2807FE87E037D007C00020E3E88
:100ED40053B1BF53B2BF53B17F53B27F75985043E0
:100EE4008920438780438E1053C4DFAB07AA06A929
:100EF40005A8047F407E427D0F7C00120872EF0437
:090F0400F404F58DD28ED299227D
:100B3A008F1C8E1B8D1A8C1953B1BF53B2BF53B180
:100B4A007F53B27F75985043878053C4F843C420BB
:100B5A00AB1CAA1BA91AA8197F407E427D0F7C00F4
:100B6A00120872C374FF9FFF74FF9EFEE49DFDE4AA
:100B7A009CFC78081209158FC6AB1CAA1BA91AA8D7
:100B8A00197F407E427D0F7C00120872C374FF9F5A
:090B9A00FF8FC543C408D2992263
:070F44003098FDAF99C2983F
:010F4B002283
:080F4C00C2998F993099FD2232
:100C07008F248E238D228C2153B1FB53B2FB53B318
:100C1700BF53B4BF75F85075C40853C4DFAB24AADB
:100C270023A922A8217F407E427D0F7C00120872F3
:100C3700C374FF9FFF74FF9EFEE49DFDE49CFC7858
:100C4700081209158FC6AB24AA23A922A8217F4021
:100C57007E427D0F7C00120872C374FF9FFF8FC511
:040C670043C4082258
:070F540030F8FDAF9AC2F86E
:010F5B002273
:080F5C00C2F98F9A30F9FD2261
:100DF3008F288E278D268C25538EF7438901D28C1D
:100E0300E4FFFEFDFCAB28AA27A926A825C31209E7
:100E1300046025758A7E758CFF308DFDC28DE528B3
:100E230024FFF528E52734FFF527E52634FFF526CB
:0B0E3300E52534FFF52580C8C28C22A5
:100E3E008F188E178D168C15538EF7438901D28C11
:100E4E00E4FFFEFDFCAB18AA17A916A815C31209DC
:100E5E00046025758ACA758CFA308DFDC28DE51831
:100E6E0024FFF518E51734FFF517E51634FFF516D0
:0B0E7E00E51534FFF51580C8C28C227A
:100E89008F2C8E2B8D2A8C29538EEF438910D28E6D
:100E9900E4FFFEFDFCAB2CAA2BA92AA829C3120941
:100EA900046025758BEA758DCB308FFDC28FE52CDB
:100EB90024FFF52CE52B34FFF52BE52A34FFF52A21
:0B0EC900E52934FFF52980C8C28E2205
:100D0B008F308E2F8D2E8C2D53C9BF53C9DF43C906
:100D1B0010D2CAE4FFFEFDFCAB30AA2FA92EA82DE2
:100D2B00C3120904602575CC3075CDF830CFFDC2E8
:100D3B00CFE53024FFF530E52F34FFF52FE52E34CA
:0E0D4B00FFF52EE52D34FFF52D80C8C2CA221B
:100D59008F348E338D328C3175C40743C408E4FF58
:100D6900FEFDFCAB34AA33A932A831C312090460D1
:100D79002875C52C75C6CFE5C430E4FB53C4EFE52F
:100D89003424FFF534E53334FFF533E53234FFF528
:0D0D990032E53134FFF53180C553C4F72237
:100DA6008F388E378D368C3575C40743C408E4FFFB
:100DB600FEFDFCAB38AA37A936A835C31209046074
:100DC6002875C5D875C6FFE5C430E4FB53C4EFE506
:100DD6003824FFF538E53734FFF537E53634FFF5C7
:0D0DE60036E53534FFF53580C553C4F722DE
:100ABA0002097DE493A3F8E493A34003F68001F2CC
:100ACA0008DFF48029E493A3F85407240CC8C3333D
:100ADA00C4540F4420C8834004F456800146F6DF0C
:100AEA00E4800B0102040810204080900F32E47E5B
:100AFA00019360BCA3FF543F30E509541FFEE49301
:100B0A00A360010ECF54C025E060A840B8E493A3C7
:100B1A00FAE493A3F8E493A3C8C582C8CAC583CAF2
:100B2A00F0A3C8C582C8CAC583CADFE9DEE780BEAA
:010F430000AD
:10080000C2D5EC30E709B2D5E4C39DFDE49CFCEE13
:1008100030E715B2D5E4C39FFFE49EFE120928C35A
:10082000E49DFDE49CFC800312092830D507C3E455
:060830009FFFE49EFE2282
:1008360075F008758200EF2FFFEE33FECD33CDCC79
:1008460033CCC58233C5829BED9AEC99E5829840FC
:100856000CF582EE9BFEED9AFDEC99FC0FD5F0D6D9
:10086600E4CEFBE4CDFAE4CCF9A88222B800C1B903
:100876000059BA002DEC8BF084CFCECDFCE5F0CB41
:10088600F97818EF2FFFEE33FEED33FDEC33FCEB7A
:1008960033FB10D703994004EB99FB0FD8E5E4F935
:1008A600FA227818EF2FFFEE33FEED33FDEC33FC22
:1008B600C933C910D7059BE99A4007EC9BFCE99A16
:1008C600F90FD8E0E4C9FAE4CCFB2275F010EF2F5B
:1008D600FFEE33FEED33FDCC33CCC833C810D7075B
:1008E6009BEC9AE899400AED9BFDEC9AFCE899F896
:0E08F6000FD5F0DAE4CDFBE4CCFAE4C8F92229
:10090400EB9FF5F0EA9E42F0E99D42F0E89C45F049
:0109140022C0
:10091500E8600FECC313FCED13FDEE13FEEF13FFC0
:03092500D8F122E4
:10092800BC000BBE0029EF8DF084FFADF022E4CCB3
:10093800F875F008EF2FFFEE33FEEC33FCEE9DEC7C
:10094800984005FCEE9DFE0FD5F0E9E4CEFD22EDC2
:10095800F8F5F0EE8420D21CFEADF075F008EF2F0C
:10096800FFED33FD4007985006D5F0F222C398FDFD
:050978000FD5F0EA229A
:00000001FF
